{
  "_format": "hh-sol-artifact-1",
  "contractName": "NFT",
  "sourceName": "contracts/NFT.sol",
  "abi": [
    {
      "inputs": [
        {
          "internalType": "address",
          "name": "marketplaceAddress",
          "type": "address"
        }
      ],
      "stateMutability": "nonpayable",
      "type": "constructor"
    },
    {
      "anonymous": false,
      "inputs": [
        {
          "indexed": true,
          "internalType": "address",
          "name": "owner",
          "type": "address"
        },
        {
          "indexed": true,
          "internalType": "address",
          "name": "approved",
          "type": "address"
        },
        {
          "indexed": true,
          "internalType": "uint256",
          "name": "tokenId",
          "type": "uint256"
        }
      ],
      "name": "Approval",
      "type": "event"
    },
    {
      "anonymous": false,
      "inputs": [
        {
          "indexed": true,
          "internalType": "address",
          "name": "owner",
          "type": "address"
        },
        {
          "indexed": true,
          "internalType": "address",
          "name": "operator",
          "type": "address"
        },
        {
          "indexed": false,
          "internalType": "bool",
          "name": "approved",
          "type": "bool"
        }
      ],
      "name": "ApprovalForAll",
      "type": "event"
    },
    {
      "anonymous": false,
      "inputs": [
        {
          "indexed": true,
          "internalType": "address",
          "name": "from",
          "type": "address"
        },
        {
          "indexed": true,
          "internalType": "address",
          "name": "to",
          "type": "address"
        },
        {
          "indexed": true,
          "internalType": "uint256",
          "name": "tokenId",
          "type": "uint256"
        }
      ],
      "name": "Transfer",
      "type": "event"
    },
    {
      "inputs": [
        {
          "internalType": "address",
          "name": "to",
          "type": "address"
        },
        {
          "internalType": "uint256",
          "name": "tokenId",
          "type": "uint256"
        }
      ],
      "name": "approve",
      "outputs": [],
      "stateMutability": "nonpayable",
      "type": "function"
    },
    {
      "inputs": [
        {
          "internalType": "address",
          "name": "owner",
          "type": "address"
        }
      ],
      "name": "balanceOf",
      "outputs": [
        {
          "internalType": "uint256",
          "name": "",
          "type": "uint256"
        }
      ],
      "stateMutability": "view",
      "type": "function"
    },
    {
      "inputs": [
        {
          "internalType": "string",
          "name": "tokenURI",
          "type": "string"
        }
      ],
      "name": "createToken",
      "outputs": [
        {
          "internalType": "uint256",
          "name": "",
          "type": "uint256"
        }
      ],
      "stateMutability": "nonpayable",
      "type": "function"
    },
    {
      "inputs": [
        {
          "internalType": "uint256",
          "name": "tokenId",
          "type": "uint256"
        }
      ],
      "name": "getApproved",
      "outputs": [
        {
          "internalType": "address",
          "name": "",
          "type": "address"
        }
      ],
      "stateMutability": "view",
      "type": "function"
    },
    {
      "inputs": [
        {
          "internalType": "address",
          "name": "owner",
          "type": "address"
        },
        {
          "internalType": "address",
          "name": "operator",
          "type": "address"
        }
      ],
      "name": "isApprovedForAll",
      "outputs": [
        {
          "internalType": "bool",
          "name": "",
          "type": "bool"
        }
      ],
      "stateMutability": "view",
      "type": "function"
    },
    {
      "inputs": [],
      "name": "name",
      "outputs": [
        {
          "internalType": "string",
          "name": "",
          "type": "string"
        }
      ],
      "stateMutability": "view",
      "type": "function"
    },
    {
      "inputs": [
        {
          "internalType": "uint256",
          "name": "tokenId",
          "type": "uint256"
        }
      ],
      "name": "ownerOf",
      "outputs": [
        {
          "internalType": "address",
          "name": "",
          "type": "address"
        }
      ],
      "stateMutability": "view",
      "type": "function"
    },
    {
      "inputs": [
        {
          "internalType": "address",
          "name": "from",
          "type": "address"
        },
        {
          "internalType": "address",
          "name": "to",
          "type": "address"
        },
        {
          "internalType": "uint256",
          "name": "tokenId",
          "type": "uint256"
        }
      ],
      "name": "safeTransferFrom",
      "outputs": [],
      "stateMutability": "nonpayable",
      "type": "function"
    },
    {
      "inputs": [
        {
          "internalType": "address",
          "name": "from",
          "type": "address"
        },
        {
          "internalType": "address",
          "name": "to",
          "type": "address"
        },
        {
          "internalType": "uint256",
          "name": "tokenId",
          "type": "uint256"
        },
        {
          "internalType": "bytes",
          "name": "data",
          "type": "bytes"
        }
      ],
      "name": "safeTransferFrom",
      "outputs": [],
      "stateMutability": "nonpayable",
      "type": "function"
    },
    {
      "inputs": [
        {
          "internalType": "address",
          "name": "operator",
          "type": "address"
        },
        {
          "internalType": "bool",
          "name": "approved",
          "type": "bool"
        }
      ],
      "name": "setApprovalForAll",
      "outputs": [],
      "stateMutability": "nonpayable",
      "type": "function"
    },
    {
      "inputs": [
        {
          "internalType": "bytes4",
          "name": "interfaceId",
          "type": "bytes4"
        }
      ],
      "name": "supportsInterface",
      "outputs": [
        {
          "internalType": "bool",
          "name": "",
          "type": "bool"
        }
      ],
      "stateMutability": "view",
      "type": "function"
    },
    {
      "inputs": [],
      "name": "symbol",
      "outputs": [
        {
          "internalType": "string",
          "name": "",
          "type": "string"
        }
      ],
      "stateMutability": "view",
      "type": "function"
    },
    {
      "inputs": [
        {
          "internalType": "uint256",
          "name": "tokenId",
          "type": "uint256"
        }
      ],
      "name": "tokenURI",
      "outputs": [
        {
          "internalType": "string",
          "name": "",
          "type": "string"
        }
      ],
      "stateMutability": "view",
      "type": "function"
    },
    {
      "inputs": [
        {
          "internalType": "address",
          "name": "from",
          "type": "address"
        },
        {
          "internalType": "address",
          "name": "to",
          "type": "address"
        },
        {
          "internalType": "uint256",
          "name": "tokenId",
          "type": "uint256"
        }
      ],
      "name": "transferFrom",
      "outputs": [],
      "stateMutability": "nonpayable",
      "type": "function"
    }
  ],
  "bytecode": "0x60806040523480156200001157600080fd5b5060405162002b5f38038062002b5f8339818101604052810190620000379190620001e6565b6040518060400160405280600f81526020017f4e46542d4d61726b6574706c61636500000000000000000000000000000000008152506040518060400160405280600381526020017f4e465400000000000000000000000000000000000000000000000000000000008152508160009080519060200190620000bb9291906200011f565b508060019080519060200190620000d49291906200011f565b50505080600860006101000a81548173ffffffffffffffffffffffffffffffffffffffff021916908373ffffffffffffffffffffffffffffffffffffffff16021790555050620002c5565b8280546200012d9062000246565b90600052602060002090601f0160209004810192826200015157600085556200019d565b82601f106200016c57805160ff19168380011785556200019d565b828001600101855582156200019d579182015b828111156200019c5782518255916020019190600101906200017f565b5b509050620001ac9190620001b0565b5090565b5b80821115620001cb576000816000905550600101620001b1565b5090565b600081519050620001e081620002ab565b92915050565b600060208284031215620001f957600080fd5b60006200020984828501620001cf565b91505092915050565b60006200021f8262000226565b9050919050565b600073ffffffffffffffffffffffffffffffffffffffff82169050919050565b600060028204905060018216806200025f57607f821691505b602082108114156200027657620002756200027c565b5b50919050565b7f4e487b7100000000000000000000000000000000000000000000000000000000600052602260045260246000fd5b620002b68162000212565b8114620002c257600080fd5b50565b61288a80620002d56000396000f3fe608060405234801561001057600080fd5b50600436106100ea5760003560e01c80636352211e1161008c578063a22cb46511610066578063a22cb4651461026f578063b88d4fde1461028b578063c87b56dd146102a7578063e985e9c5146102d7576100ea565b80636352211e146101f157806370a082311461022157806395d89b4114610251576100ea565b8063095ea7b3116100c8578063095ea7b31461016d57806323b872dd1461018957806342842e0e146101a557806345576f94146101c1576100ea565b806301ffc9a7146100ef57806306fdde031461011f578063081812fc1461013d575b600080fd5b61010960048036038101906101049190611b64565b610307565b6040516101169190611f1f565b60405180910390f35b6101276103e9565b6040516101349190611f3a565b60405180910390f35b61015760048036038101906101529190611bf7565b61047b565b6040516101649190611eb8565b60405180910390f35b61018760048036038101906101829190611b28565b6104c1565b005b6101a3600480360381019061019e9190611a22565b6105d9565b005b6101bf60048036038101906101ba9190611a22565b610639565b005b6101db60048036038101906101d69190611bb6565b610659565b6040516101e891906120dc565b60405180910390f35b61020b60048036038101906102069190611bf7565b6106bd565b6040516102189190611eb8565b60405180910390f35b61023b600480360381019061023691906119bd565b61076f565b60405161024891906120dc565b60405180910390f35b610259610827565b6040516102669190611f3a565b60405180910390f35b61028960048036038101906102849190611aec565b6108b9565b005b6102a560048036038101906102a09190611a71565b6108cf565b005b6102c160048036038101906102bc9190611bf7565b610931565b6040516102ce9190611f3a565b60405180910390f35b6102f160048036038101906102ec91906119e6565b610a44565b6040516102fe9190611f1f565b60405180910390f35b60007f80ac58cd000000000000000000000000000000000000000000000000000000007bffffffffffffffffffffffffffffffffffffffffffffffffffffffff1916827bffffffffffffffffffffffffffffffffffffffffffffffffffffffff191614806103d257507f5b5e139f000000000000000000000000000000000000000000000000000000007bffffffffffffffffffffffffffffffffffffffffffffffffffffffff1916827bffffffffffffffffffffffffffffffffffffffffffffffffffffffff1916145b806103e257506103e182610ad8565b5b9050919050565b6060600080546103f890612332565b80601f016020809104026020016040519081016040528092919081815260200182805461042490612332565b80156104715780601f1061044657610100808354040283529160200191610471565b820191906000526020600020905b81548152906001019060200180831161045457829003601f168201915b5050505050905090565b600061048682610b42565b6004600083815260200190815260200160002060009054906101000a900473ffffffffffffffffffffffffffffffffffffffff169050919050565b60006104cc826106bd565b90508073ffffffffffffffffffffffffffffffffffffffff168373ffffffffffffffffffffffffffffffffffffffff16141561053d576040517f08c379a00000000000000000000000000000000000000000000000000000000081526004016105349061209c565b60405180910390fd5b8073ffffffffffffffffffffffffffffffffffffffff1661055c610b8d565b73ffffffffffffffffffffffffffffffffffffffff16148061058b575061058a81610585610b8d565b610a44565b5b6105ca576040517f08c379a00000000000000000000000000000000000000000000000000000000081526004016105c19061203c565b60405180910390fd5b6105d48383610b95565b505050565b6105ea6105e4610b8d565b82610c4e565b610629576040517f08c379a0000000000000000000000000000000000000000000000000000000008152600401610620906120bc565b60405180910390fd5b610634838383610ce3565b505050565b610654838383604051806020016040528060008152506108cf565b505050565b60006106656007610f4a565b60006106716007610f60565b905061067d3382610f6e565b6106878184611148565b6106b4600860009054906101000a900473ffffffffffffffffffffffffffffffffffffffff1660016108b9565b80915050919050565b6000806002600084815260200190815260200160002060009054906101000a900473ffffffffffffffffffffffffffffffffffffffff169050600073ffffffffffffffffffffffffffffffffffffffff168173ffffffffffffffffffffffffffffffffffffffff161415610766576040517f08c379a000000000000000000000000000000000000000000000000000000000815260040161075d9061207c565b60405180910390fd5b80915050919050565b60008073ffffffffffffffffffffffffffffffffffffffff168273ffffffffffffffffffffffffffffffffffffffff1614156107e0576040517f08c379a00000000000000000000000000000000000000000000000000000000081526004016107d790611ffc565b60405180910390fd5b600360008373ffffffffffffffffffffffffffffffffffffffff1673ffffffffffffffffffffffffffffffffffffffff168152602001908152602001600020549050919050565b60606001805461083690612332565b80601f016020809104026020016040519081016040528092919081815260200182805461086290612332565b80156108af5780601f10610884576101008083540402835291602001916108af565b820191906000526020600020905b81548152906001019060200180831161089257829003601f168201915b5050505050905090565b6108cb6108c4610b8d565b83836111bc565b5050565b6108e06108da610b8d565b83610c4e565b61091f576040517f08c379a0000000000000000000000000000000000000000000000000000000008152600401610916906120bc565b60405180910390fd5b61092b84848484611329565b50505050565b606061093c82610b42565b600060066000848152602001908152602001600020805461095c90612332565b80601f016020809104026020016040519081016040528092919081815260200182805461098890612332565b80156109d55780601f106109aa576101008083540402835291602001916109d5565b820191906000526020600020905b8154815290600101906020018083116109b857829003601f168201915b5050505050905060006109e6611385565b90506000815114156109fc578192505050610a3f565b600082511115610a31578082604051602001610a19929190611e94565b60405160208183030381529060405292505050610a3f565b610a3a8461139c565b925050505b919050565b6000600560008473ffffffffffffffffffffffffffffffffffffffff1673ffffffffffffffffffffffffffffffffffffffff16815260200190815260200160002060008373ffffffffffffffffffffffffffffffffffffffff1673ffffffffffffffffffffffffffffffffffffffff16815260200190815260200160002060009054906101000a900460ff16905092915050565b60007f01ffc9a7000000000000000000000000000000000000000000000000000000007bffffffffffffffffffffffffffffffffffffffffffffffffffffffff1916827bffffffffffffffffffffffffffffffffffffffffffffffffffffffff1916149050919050565b610b4b81611404565b610b8a576040517f08c379a0000000000000000000000000000000000000000000000000000000008152600401610b819061207c565b60405180910390fd5b50565b600033905090565b816004600083815260200190815260200160002060006101000a81548173ffffffffffffffffffffffffffffffffffffffff021916908373ffffffffffffffffffffffffffffffffffffffff160217905550808273ffffffffffffffffffffffffffffffffffffffff16610c08836106bd565b73ffffffffffffffffffffffffffffffffffffffff167f8c5be1e5ebec7d5bd14f71427d1e84f3dd0314c0f7b2291e5b200ac8c7c3b92560405160405180910390a45050565b600080610c5a836106bd565b90508073ffffffffffffffffffffffffffffffffffffffff168473ffffffffffffffffffffffffffffffffffffffff161480610c9c5750610c9b8185610a44565b5b80610cda57508373ffffffffffffffffffffffffffffffffffffffff16610cc28461047b565b73ffffffffffffffffffffffffffffffffffffffff16145b91505092915050565b8273ffffffffffffffffffffffffffffffffffffffff16610d03826106bd565b73ffffffffffffffffffffffffffffffffffffffff1614610d59576040517f08c379a0000000000000000000000000000000000000000000000000000000008152600401610d5090611f7c565b60405180910390fd5b600073ffffffffffffffffffffffffffffffffffffffff168273ffffffffffffffffffffffffffffffffffffffff161415610dc9576040517f08c379a0000000000000000000000000000000000000000000000000000000008152600401610dc090611fbc565b60405180910390fd5b610dd4838383611470565b610ddf600082610b95565b6001600360008573ffffffffffffffffffffffffffffffffffffffff1673ffffffffffffffffffffffffffffffffffffffff1681526020019081526020016000206000828254610e2f9190612248565b925050819055506001600360008473ffffffffffffffffffffffffffffffffffffffff1673ffffffffffffffffffffffffffffffffffffffff1681526020019081526020016000206000828254610e8691906121c1565b92505081905550816002600083815260200190815260200160002060006101000a81548173ffffffffffffffffffffffffffffffffffffffff021916908373ffffffffffffffffffffffffffffffffffffffff160217905550808273ffffffffffffffffffffffffffffffffffffffff168473ffffffffffffffffffffffffffffffffffffffff167fddf252ad1be2c89b69c2b068fc378daa952ba7f163c4a11628f55a4df523b3ef60405160405180910390a4610f45838383611475565b505050565b6001816000016000828254019250508190555050565b600081600001549050919050565b600073ffffffffffffffffffffffffffffffffffffffff168273ffffffffffffffffffffffffffffffffffffffff161415610fde576040517f08c379a0000000000000000000000000000000000000000000000000000000008152600401610fd59061205c565b60405180910390fd5b610fe781611404565b15611027576040517f08c379a000000000000000000000000000000000000000000000000000000000815260040161101e90611f9c565b60405180910390fd5b61103360008383611470565b6001600360008473ffffffffffffffffffffffffffffffffffffffff1673ffffffffffffffffffffffffffffffffffffffff168152602001908152602001600020600082825461108391906121c1565b92505081905550816002600083815260200190815260200160002060006101000a81548173ffffffffffffffffffffffffffffffffffffffff021916908373ffffffffffffffffffffffffffffffffffffffff160217905550808273ffffffffffffffffffffffffffffffffffffffff16600073ffffffffffffffffffffffffffffffffffffffff167fddf252ad1be2c89b69c2b068fc378daa952ba7f163c4a11628f55a4df523b3ef60405160405180910390a461114460008383611475565b5050565b61115182611404565b611190576040517f08c379a00000000000000000000000000000000000000000000000000000000081526004016111879061201c565b60405180910390fd5b806006600084815260200190815260200160002090805190602001906111b79291906117e1565b505050565b8173ffffffffffffffffffffffffffffffffffffffff168373ffffffffffffffffffffffffffffffffffffffff16141561122b576040517f08c379a000000000000000000000000000000000000000000000000000000000815260040161122290611fdc565b60405180910390fd5b80600560008573ffffffffffffffffffffffffffffffffffffffff1673ffffffffffffffffffffffffffffffffffffffff16815260200190815260200160002060008473ffffffffffffffffffffffffffffffffffffffff1673ffffffffffffffffffffffffffffffffffffffff16815260200190815260200160002060006101000a81548160ff0219169083151502179055508173ffffffffffffffffffffffffffffffffffffffff168373ffffffffffffffffffffffffffffffffffffffff167f17307eab39ab6107e8899845ad3d59bd9653f200f220920489ca2b5937696c318360405161131c9190611f1f565b60405180910390a3505050565b611334848484610ce3565b6113408484848461147a565b61137f576040517f08c379a000000000000000000000000000000000000000000000000000000000815260040161137690611f5c565b60405180910390fd5b50505050565b606060405180602001604052806000815250905090565b60606113a782610b42565b60006113b1611385565b905060008151116113d157604051806020016040528060008152506113fc565b806113db84611611565b6040516020016113ec929190611e94565b6040516020818303038152906040525b915050919050565b60008073ffffffffffffffffffffffffffffffffffffffff166002600084815260200190815260200160002060009054906101000a900473ffffffffffffffffffffffffffffffffffffffff1673ffffffffffffffffffffffffffffffffffffffff1614159050919050565b505050565b505050565b600061149b8473ffffffffffffffffffffffffffffffffffffffff166117be565b15611604578373ffffffffffffffffffffffffffffffffffffffff1663150b7a026114c4610b8d565b8786866040518563ffffffff1660e01b81526004016114e69493929190611ed3565b602060405180830381600087803b15801561150057600080fd5b505af192505050801561153157506040513d601f19601f8201168201806040525081019061152e9190611b8d565b60015b6115b4573d8060008114611561576040519150601f19603f3d011682016040523d82523d6000602084013e611566565b606091505b506000815114156115ac576040517f08c379a00000000000000000000000000000000000000000000000000000000081526004016115a390611f5c565b60405180910390fd5b805181602001fd5b63150b7a0260e01b7bffffffffffffffffffffffffffffffffffffffffffffffffffffffff1916817bffffffffffffffffffffffffffffffffffffffffffffffffffffffff191614915050611609565b600190505b949350505050565b60606000821415611659576040518060400160405280600181526020017f300000000000000000000000000000000000000000000000000000000000000081525090506117b9565b600082905060005b6000821461168b57808061167490612395565b915050600a826116849190612217565b9150611661565b60008167ffffffffffffffff8111156116cd577f4e487b7100000000000000000000000000000000000000000000000000000000600052604160045260246000fd5b6040519080825280601f01601f1916602001820160405280156116ff5781602001600182028036833780820191505090505b5090505b600085146117b2576001826117189190612248565b9150600a8561172791906123de565b603061173391906121c1565b60f81b81838151811061176f577f4e487b7100000000000000000000000000000000000000000000000000000000600052603260045260246000fd5b60200101907effffffffffffffffffffffffffffffffffffffffffffffffffffffffffffff1916908160001a905350600a856117ab9190612217565b9450611703565b8093505050505b919050565b6000808273ffffffffffffffffffffffffffffffffffffffff163b119050919050565b8280546117ed90612332565b90600052602060002090601f01602090048101928261180f5760008555611856565b82601f1061182857805160ff1916838001178555611856565b82800160010185558215611856579182015b8281111561185557825182559160200191906001019061183a565b5b5090506118639190611867565b5090565b5b80821115611880576000816000905550600101611868565b5090565b60006118976118928461211c565b6120f7565b9050828152602081018484840111156118af57600080fd5b6118ba8482856122f0565b509392505050565b60006118d56118d08461214d565b6120f7565b9050828152602081018484840111156118ed57600080fd5b6118f88482856122f0565b509392505050565b60008135905061190f816127f8565b92915050565b6000813590506119248161280f565b92915050565b60008135905061193981612826565b92915050565b60008151905061194e81612826565b92915050565b600082601f83011261196557600080fd5b8135611975848260208601611884565b91505092915050565b600082601f83011261198f57600080fd5b813561199f8482602086016118c2565b91505092915050565b6000813590506119b78161283d565b92915050565b6000602082840312156119cf57600080fd5b60006119dd84828501611900565b91505092915050565b600080604083850312156119f957600080fd5b6000611a0785828601611900565b9250506020611a1885828601611900565b9150509250929050565b600080600060608486031215611a3757600080fd5b6000611a4586828701611900565b9350506020611a5686828701611900565b9250506040611a67868287016119a8565b9150509250925092565b60008060008060808587031215611a8757600080fd5b6000611a9587828801611900565b9450506020611aa687828801611900565b9350506040611ab7878288016119a8565b925050606085013567ffffffffffffffff811115611ad457600080fd5b611ae087828801611954565b91505092959194509250565b60008060408385031215611aff57600080fd5b6000611b0d85828601611900565b9250506020611b1e85828601611915565b9150509250929050565b60008060408385031215611b3b57600080fd5b6000611b4985828601611900565b9250506020611b5a858286016119a8565b9150509250929050565b600060208284031215611b7657600080fd5b6000611b848482850161192a565b91505092915050565b600060208284031215611b9f57600080fd5b6000611bad8482850161193f565b91505092915050565b600060208284031215611bc857600080fd5b600082013567ffffffffffffffff811115611be257600080fd5b611bee8482850161197e565b91505092915050565b600060208284031215611c0957600080fd5b6000611c17848285016119a8565b91505092915050565b611c298161227c565b82525050565b611c388161228e565b82525050565b6000611c498261217e565b611c538185612194565b9350611c638185602086016122ff565b611c6c816124cb565b840191505092915050565b6000611c8282612189565b611c8c81856121a5565b9350611c9c8185602086016122ff565b611ca5816124cb565b840191505092915050565b6000611cbb82612189565b611cc581856121b6565b9350611cd58185602086016122ff565b80840191505092915050565b6000611cee6032836121a5565b9150611cf9826124dc565b604082019050919050565b6000611d116025836121a5565b9150611d1c8261252b565b604082019050919050565b6000611d34601c836121a5565b9150611d3f8261257a565b602082019050919050565b6000611d576024836121a5565b9150611d62826125a3565b604082019050919050565b6000611d7a6019836121a5565b9150611d85826125f2565b602082019050919050565b6000611d9d6029836121a5565b9150611da88261261b565b604082019050919050565b6000611dc0602e836121a5565b9150611dcb8261266a565b604082019050919050565b6000611de3603e836121a5565b9150611dee826126b9565b604082019050919050565b6000611e066020836121a5565b9150611e1182612708565b602082019050919050565b6000611e296018836121a5565b9150611e3482612731565b602082019050919050565b6000611e4c6021836121a5565b9150611e578261275a565b604082019050919050565b6000611e6f602e836121a5565b9150611e7a826127a9565b604082019050919050565b611e8e816122e6565b82525050565b6000611ea08285611cb0565b9150611eac8284611cb0565b91508190509392505050565b6000602082019050611ecd6000830184611c20565b92915050565b6000608082019050611ee86000830187611c20565b611ef56020830186611c20565b611f026040830185611e85565b8181036060830152611f148184611c3e565b905095945050505050565b6000602082019050611f346000830184611c2f565b92915050565b60006020820190508181036000830152611f548184611c77565b905092915050565b60006020820190508181036000830152611f7581611ce1565b9050919050565b60006020820190508181036000830152611f9581611d04565b9050919050565b60006020820190508181036000830152611fb581611d27565b9050919050565b60006020820190508181036000830152611fd581611d4a565b9050919050565b60006020820190508181036000830152611ff581611d6d565b9050919050565b6000602082019050818103600083015261201581611d90565b9050919050565b6000602082019050818103600083015261203581611db3565b9050919050565b6000602082019050818103600083015261205581611dd6565b9050919050565b6000602082019050818103600083015261207581611df9565b9050919050565b6000602082019050818103600083015261209581611e1c565b9050919050565b600060208201905081810360008301526120b581611e3f565b9050919050565b600060208201905081810360008301526120d581611e62565b9050919050565b60006020820190506120f16000830184611e85565b92915050565b6000612101612112565b905061210d8282612364565b919050565b6000604051905090565b600067ffffffffffffffff8211156121375761213661249c565b5b612140826124cb565b9050602081019050919050565b600067ffffffffffffffff8211156121685761216761249c565b5b612171826124cb565b9050602081019050919050565b600081519050919050565b600081519050919050565b600082825260208201905092915050565b600082825260208201905092915050565b600081905092915050565b60006121cc826122e6565b91506121d7836122e6565b9250827fffffffffffffffffffffffffffffffffffffffffffffffffffffffffffffffff0382111561220c5761220b61240f565b5b828201905092915050565b6000612222826122e6565b915061222d836122e6565b92508261223d5761223c61243e565b5b828204905092915050565b6000612253826122e6565b915061225e836122e6565b9250828210156122715761227061240f565b5b828203905092915050565b6000612287826122c6565b9050919050565b60008115159050919050565b60007fffffffff0000000000000000000000000000000000000000000000000000000082169050919050565b600073ffffffffffffffffffffffffffffffffffffffff82169050919050565b6000819050919050565b82818337600083830152505050565b60005b8381101561231d578082015181840152602081019050612302565b8381111561232c576000848401525b50505050565b6000600282049050600182168061234a57607f821691505b6020821081141561235e5761235d61246d565b5b50919050565b61236d826124cb565b810181811067ffffffffffffffff8211171561238c5761238b61249c565b5b80604052505050565b60006123a0826122e6565b91507fffffffffffffffffffffffffffffffffffffffffffffffffffffffffffffffff8214156123d3576123d261240f565b5b600182019050919050565b60006123e9826122e6565b91506123f4836122e6565b9250826124045761240361243e565b5b828206905092915050565b7f4e487b7100000000000000000000000000000000000000000000000000000000600052601160045260246000fd5b7f4e487b7100000000000000000000000000000000000000000000000000000000600052601260045260246000fd5b7f4e487b7100000000000000000000000000000000000000000000000000000000600052602260045260246000fd5b7f4e487b7100000000000000000000000000000000000000000000000000000000600052604160045260246000fd5b6000601f19601f8301169050919050565b7f4552433732313a207472616e7366657220746f206e6f6e20455243373231526560008201527f63656976657220696d706c656d656e7465720000000000000000000000000000602082015250565b7f4552433732313a207472616e736665722066726f6d20696e636f72726563742060008201527f6f776e6572000000000000000000000000000000000000000000000000000000602082015250565b7f4552433732313a20746f6b656e20616c7265616479206d696e74656400000000600082015250565b7f4552433732313a207472616e7366657220746f20746865207a65726f2061646460008201527f7265737300000000000000000000000000000000000000000000000000000000602082015250565b7f4552433732313a20617070726f766520746f2063616c6c657200000000000000600082015250565b7f4552433732313a2061646472657373207a65726f206973206e6f74206120766160008201527f6c6964206f776e65720000000000000000000000000000000000000000000000602082015250565b7f45524337323155524953746f726167653a2055524920736574206f66206e6f6e60008201527f6578697374656e7420746f6b656e000000000000000000000000000000000000602082015250565b7f4552433732313a20617070726f76652063616c6c6572206973206e6f7420746f60008201527f6b656e206f776e6572206e6f7220617070726f76656420666f7220616c6c0000602082015250565b7f4552433732313a206d696e7420746f20746865207a65726f2061646472657373600082015250565b7f4552433732313a20696e76616c696420746f6b656e2049440000000000000000600082015250565b7f4552433732313a20617070726f76616c20746f2063757272656e74206f776e6560008201527f7200000000000000000000000000000000000000000000000000000000000000602082015250565b7f4552433732313a2063616c6c6572206973206e6f7420746f6b656e206f776e6560008201527f72206e6f7220617070726f766564000000000000000000000000000000000000602082015250565b6128018161227c565b811461280c57600080fd5b50565b6128188161228e565b811461282357600080fd5b50565b61282f8161229a565b811461283a57600080fd5b50565b612846816122e6565b811461285157600080fd5b5056fea2646970667358221220aafa52e6548508ee1805e7d30f17d6cad25ae80d6a367ac7218508dc968b830864736f6c63430008040033",
  "linkReferences": {},
  "deployedLinkReferences": {}
}