{
  "_format": "hh-sol-artifact-1",
  "contractName": "Marketplace",
  "sourceName": "contracts/Marketplace.sol",
  "abi": [
    {
      "inputs": [],
      "stateMutability": "nonpayable",
      "type": "constructor"
    },
    {
      "anonymous": false,
      "inputs": [
        {
          "indexed": true,
          "internalType": "uint256",
          "name": "itemId",
          "type": "uint256"
        },
        {
          "indexed": true,
          "internalType": "address",
          "name": "nftContract",
          "type": "address"
        },
        {
          "indexed": true,
          "internalType": "uint256",
          "name": "tokenId",
          "type": "uint256"
        },
        {
          "indexed": false,
          "internalType": "address",
          "name": "seller",
          "type": "address"
        },
        {
          "indexed": false,
          "internalType": "address",
          "name": "owner",
          "type": "address"
        },
        {
          "indexed": false,
          "internalType": "uint256",
          "name": "price",
          "type": "uint256"
        },
        {
          "indexed": false,
          "internalType": "bool",
          "name": "sold",
          "type": "bool"
        }
      ],
      "name": "MarketItemCreated",
      "type": "event"
    },
    {
      "inputs": [
        {
          "internalType": "address",
          "name": "nftContract",
          "type": "address"
        },
        {
          "internalType": "uint256",
          "name": "tokenId",
          "type": "uint256"
        },
        {
          "internalType": "uint256",
          "name": "price",
          "type": "uint256"
        }
      ],
      "name": "createMarketItem",
      "outputs": [],
      "stateMutability": "payable",
      "type": "function"
    },
    {
      "inputs": [
        {
          "internalType": "address",
          "name": "nftContract",
          "type": "address"
        },
        {
          "internalType": "uint256",
          "name": "itemId",
          "type": "uint256"
        }
      ],
      "name": "createMarketSale",
      "outputs": [],
      "stateMutability": "payable",
      "type": "function"
    },
    {
      "inputs": [],
      "name": "fetchItemsListed",
      "outputs": [
        {
          "components": [
            {
              "internalType": "uint256",
              "name": "itemId",
              "type": "uint256"
            },
            {
              "internalType": "address",
              "name": "nftContract",
              "type": "address"
            },
            {
              "internalType": "uint256",
              "name": "tokenId",
              "type": "uint256"
            },
            {
              "internalType": "address payable",
              "name": "seller",
              "type": "address"
            },
            {
              "internalType": "address payable",
              "name": "owner",
              "type": "address"
            },
            {
              "internalType": "uint256",
              "name": "price",
              "type": "uint256"
            },
            {
              "internalType": "bool",
              "name": "sold",
              "type": "bool"
            }
          ],
          "internalType": "struct Marketplace.MarketItem[]",
          "name": "",
          "type": "tuple[]"
        }
      ],
      "stateMutability": "view",
      "type": "function"
    },
    {
      "inputs": [],
      "name": "fetchMarketItems",
      "outputs": [
        {
          "components": [
            {
              "internalType": "uint256",
              "name": "itemId",
              "type": "uint256"
            },
            {
              "internalType": "address",
              "name": "nftContract",
              "type": "address"
            },
            {
              "internalType": "uint256",
              "name": "tokenId",
              "type": "uint256"
            },
            {
              "internalType": "address payable",
              "name": "seller",
              "type": "address"
            },
            {
              "internalType": "address payable",
              "name": "owner",
              "type": "address"
            },
            {
              "internalType": "uint256",
              "name": "price",
              "type": "uint256"
            },
            {
              "internalType": "bool",
              "name": "sold",
              "type": "bool"
            }
          ],
          "internalType": "struct Marketplace.MarketItem[]",
          "name": "",
          "type": "tuple[]"
        }
      ],
      "stateMutability": "view",
      "type": "function"
    },
    {
      "inputs": [],
      "name": "fetchMyNFTs",
      "outputs": [
        {
          "components": [
            {
              "internalType": "uint256",
              "name": "itemId",
              "type": "uint256"
            },
            {
              "internalType": "address",
              "name": "nftContract",
              "type": "address"
            },
            {
              "internalType": "uint256",
              "name": "tokenId",
              "type": "uint256"
            },
            {
              "internalType": "address payable",
              "name": "seller",
              "type": "address"
            },
            {
              "internalType": "address payable",
              "name": "owner",
              "type": "address"
            },
            {
              "internalType": "uint256",
              "name": "price",
              "type": "uint256"
            },
            {
              "internalType": "bool",
              "name": "sold",
              "type": "bool"
            }
          ],
          "internalType": "struct Marketplace.MarketItem[]",
          "name": "",
          "type": "tuple[]"
        }
      ],
      "stateMutability": "view",
      "type": "function"
    },
    {
      "inputs": [],
      "name": "getListingPrice",
      "outputs": [
        {
          "internalType": "uint256",
          "name": "",
          "type": "uint256"
        }
      ],
      "stateMutability": "view",
      "type": "function"
    },
    {
      "inputs": [
        {
          "internalType": "address",
          "name": "nftContract",
          "type": "address"
        },
        {
          "internalType": "uint256",
          "name": "itemId",
          "type": "uint256"
        }
      ],
      "name": "resellToken",
      "outputs": [],
      "stateMutability": "payable",
      "type": "function"
    },
    {
      "inputs": [
        {
          "internalType": "uint256",
          "name": "_listingPrice",
          "type": "uint256"
        }
      ],
      "name": "updateListingPrice",
      "outputs": [],
      "stateMutability": "payable",
      "type": "function"
    }
  ],
  "bytecode": "0x60806040526602e9c920b7400060045534801561001b57600080fd5b50600160008190555033600360006101000a81548173ffffffffffffffffffffffffffffffffffffffff021916908373ffffffffffffffffffffffffffffffffffffffff160217905550611ee8806100746000396000f3fe60806040526004361061007b5760003560e01c806358eb2df51161004e57806358eb2df51461012c5780636455187914610148578063ae677aa314610164578063c23b139e146101805761007b565b80630f08efe01461008057806312e85585146100ab578063202e3740146100d657806345f8fa8014610101575b600080fd5b34801561008c57600080fd5b5061009561019c565b6040516100a29190611a0a565b60405180910390f35b3480156100b757600080fd5b506100c06104b1565b6040516100cd9190611b0c565b60405180910390f35b3480156100e257600080fd5b506100eb6104bb565b6040516100f89190611a0a565b60405180910390f35b34801561010d57600080fd5b5061011661086b565b6040516101239190611a0a565b60405180910390f35b610146600480360381019061014191906116b4565b610c05565b005b610162600480360381019061015d9190611678565b610f69565b005b61017e60048036038101906101799190611703565b611250565b005b61019a60048036038101906101959190611678565b6112ea565b005b606060006101aa600161154d565b905060006101b8600261154d565b6101c2600161154d565b6101cc9190611bc7565b90506000808267ffffffffffffffff811115610211577f4e487b7100000000000000000000000000000000000000000000000000000000600052604160045260246000fd5b60405190808252806020026020018201604052801561024a57816020015b6102376115cd565b81526020019060019003908161022f5790505b50905060005b848110156104a6573073ffffffffffffffffffffffffffffffffffffffff16600560006001846102809190611b71565b815260200190815260200160002060040160009054906101000a900473ffffffffffffffffffffffffffffffffffffffff1673ffffffffffffffffffffffffffffffffffffffff1614156104935760006001826102dd9190611b71565b90506000600560008381526020019081526020016000209050806040518060e0016040529081600082015481526020016001820160009054906101000a900473ffffffffffffffffffffffffffffffffffffffff1673ffffffffffffffffffffffffffffffffffffffff1673ffffffffffffffffffffffffffffffffffffffff168152602001600282015481526020016003820160009054906101000a900473ffffffffffffffffffffffffffffffffffffffff1673ffffffffffffffffffffffffffffffffffffffff1673ffffffffffffffffffffffffffffffffffffffff1681526020016004820160009054906101000a900473ffffffffffffffffffffffffffffffffffffffff1673ffffffffffffffffffffffffffffffffffffffff1673ffffffffffffffffffffffffffffffffffffffff168152602001600582015481526020016006820160009054906101000a900460ff161515151581525050848681518110610476577f4e487b7100000000000000000000000000000000000000000000000000000000600052603260045260246000fd5b602002602001018190525060018561048e9190611b71565b945050505b808061049e90611c55565b915050610250565b508094505050505090565b6000600454905090565b606060006104c9600161154d565b905060008060005b83811015610572573373ffffffffffffffffffffffffffffffffffffffff16600560006001846105019190611b71565b815260200190815260200160002060040160009054906101000a900473ffffffffffffffffffffffffffffffffffffffff1673ffffffffffffffffffffffffffffffffffffffff16141561055f5760018361055c9190611b71565b92505b808061056a90611c55565b9150506104d1565b5060008267ffffffffffffffff8111156105b5577f4e487b7100000000000000000000000000000000000000000000000000000000600052604160045260246000fd5b6040519080825280602002602001820160405280156105ee57816020015b6105db6115cd565b8152602001906001900390816105d35790505b50905060005b84811015610860573373ffffffffffffffffffffffffffffffffffffffff16600560006001846106249190611b71565b815260200190815260200160002060040160009054906101000a900473ffffffffffffffffffffffffffffffffffffffff1673ffffffffffffffffffffffffffffffffffffffff16141561084d576000600560006001846106859190611b71565b81526020019081526020016000206000015490506000600560008381526020019081526020016000209050806040518060e0016040529081600082015481526020016001820160009054906101000a900473ffffffffffffffffffffffffffffffffffffffff1673ffffffffffffffffffffffffffffffffffffffff1673ffffffffffffffffffffffffffffffffffffffff168152602001600282015481526020016003820160009054906101000a900473ffffffffffffffffffffffffffffffffffffffff1673ffffffffffffffffffffffffffffffffffffffff1673ffffffffffffffffffffffffffffffffffffffff1681526020016004820160009054906101000a900473ffffffffffffffffffffffffffffffffffffffff1673ffffffffffffffffffffffffffffffffffffffff1673ffffffffffffffffffffffffffffffffffffffff168152602001600582015481526020016006820160009054906101000a900460ff161515151581525050848681518110610830577f4e487b7100000000000000000000000000000000000000000000000000000000600052603260045260246000fd5b60200260200101819052506001856108489190611b71565b945050505b808061085890611c55565b9150506105f4565b508094505050505090565b60606000610879600161154d565b905060008060005b83811015610922573373ffffffffffffffffffffffffffffffffffffffff16600560006001846108b19190611b71565b815260200190815260200160002060030160009054906101000a900473ffffffffffffffffffffffffffffffffffffffff1673ffffffffffffffffffffffffffffffffffffffff16141561090f5760018361090c9190611b71565b92505b808061091a90611c55565b915050610881565b5060008267ffffffffffffffff811115610965577f4e487b7100000000000000000000000000000000000000000000000000000000600052604160045260246000fd5b60405190808252806020026020018201604052801561099e57816020015b61098b6115cd565b8152602001906001900390816109835790505b50905060005b84811015610bfa573373ffffffffffffffffffffffffffffffffffffffff16600560006001846109d49190611b71565b815260200190815260200160002060030160009054906101000a900473ffffffffffffffffffffffffffffffffffffffff1673ffffffffffffffffffffffffffffffffffffffff161415610be7576000600182610a319190611b71565b90506000600560008381526020019081526020016000209050806040518060e0016040529081600082015481526020016001820160009054906101000a900473ffffffffffffffffffffffffffffffffffffffff1673ffffffffffffffffffffffffffffffffffffffff1673ffffffffffffffffffffffffffffffffffffffff168152602001600282015481526020016003820160009054906101000a900473ffffffffffffffffffffffffffffffffffffffff1673ffffffffffffffffffffffffffffffffffffffff1673ffffffffffffffffffffffffffffffffffffffff1681526020016004820160009054906101000a900473ffffffffffffffffffffffffffffffffffffffff1673ffffffffffffffffffffffffffffffffffffffff1673ffffffffffffffffffffffffffffffffffffffff168152602001600582015481526020016006820160009054906101000a900460ff161515151581525050848681518110610bca577f4e487b7100000000000000000000000000000000000000000000000000000000600052603260045260246000fd5b6020026020010181905250600185610be29190611b71565b945050505b8080610bf290611c55565b9150506109a4565b508094505050505090565b60026000541415610c4b576040517f08c379a0000000000000000000000000000000000000000000000000000000008152600401610c4290611acc565b60405180910390fd5b600260008190555060008111610c96576040517f08c379a0000000000000000000000000000000000000000000000000000000008152600401610c8d90611aec565b60405180910390fd5b6004543414610cda576040517f08c379a0000000000000000000000000000000000000000000000000000000008152600401610cd190611a8c565b60405180910390fd5b610ce4600161155b565b6000610cf0600161154d565b90506040518060e001604052808281526020018573ffffffffffffffffffffffffffffffffffffffff1681526020018481526020013373ffffffffffffffffffffffffffffffffffffffff168152602001600073ffffffffffffffffffffffffffffffffffffffff16815260200183815260200160001515815250600560008381526020019081526020016000206000820151816000015560208201518160010160006101000a81548173ffffffffffffffffffffffffffffffffffffffff021916908373ffffffffffffffffffffffffffffffffffffffff1602179055506040820151816002015560608201518160030160006101000a81548173ffffffffffffffffffffffffffffffffffffffff021916908373ffffffffffffffffffffffffffffffffffffffff16021790555060808201518160040160006101000a81548173ffffffffffffffffffffffffffffffffffffffff021916908373ffffffffffffffffffffffffffffffffffffffff16021790555060a0820151816005015560c08201518160060160006101000a81548160ff0219169083151502179055509050508373ffffffffffffffffffffffffffffffffffffffff166323b872dd3330866040518463ffffffff1660e01b8152600401610ed19392919061198e565b600060405180830381600087803b158015610eeb57600080fd5b505af1158015610eff573d6000803e3d6000fd5b50505050828473ffffffffffffffffffffffffffffffffffffffff16827f045dfa01dcba2b36aba1d3dc4a874f4b0c5d2fbeb8d2c4b34a7d88c8d8f929d1336000876000604051610f5394939291906119c5565b60405180910390a4506001600081905550505050565b60026000541415610faf576040517f08c379a0000000000000000000000000000000000000000000000000000000008152600401610fa690611acc565b60405180910390fd5b60026000819055506000600560008381526020019081526020016000206005015490506000600560008481526020019081526020016000206002015490503373ffffffffffffffffffffffffffffffffffffffff166005600083815260200190815260200160002060040160009054906101000a900473ffffffffffffffffffffffffffffffffffffffff1673ffffffffffffffffffffffffffffffffffffffff1614611091576040517f08c379a000000000000000000000000000000000000000000000000000000000815260040161108890611a6c565b60405180910390fd5b60045434146110d5576040517f08c379a00000000000000000000000000000000000000000000000000000000081526004016110cc90611a8c565b60405180910390fd5b60006005600083815260200190815260200160002060060160006101000a81548160ff021916908315150217905550816005600083815260200190815260200160002060050181905550336005600083815260200190815260200160002060030160006101000a81548173ffffffffffffffffffffffffffffffffffffffff021916908373ffffffffffffffffffffffffffffffffffffffff160217905550306005600083815260200190815260200160002060040160006101000a81548173ffffffffffffffffffffffffffffffffffffffff021916908373ffffffffffffffffffffffffffffffffffffffff1602179055506111d36002611571565b8373ffffffffffffffffffffffffffffffffffffffff166323b872dd3330846040518463ffffffff1660e01b81526004016112109392919061198e565b600060405180830381600087803b15801561122a57600080fd5b505af115801561123e573d6000803e3d6000fd5b50505050505060016000819055505050565b3373ffffffffffffffffffffffffffffffffffffffff16600360009054906101000a900473ffffffffffffffffffffffffffffffffffffffff1673ffffffffffffffffffffffffffffffffffffffff16146112e0576040517f08c379a00000000000000000000000000000000000000000000000000000000081526004016112d790611aac565b60405180910390fd5b8060048190555050565b600060056000838152602001908152602001600020600501549050600060056000848152602001908152602001600020600201549050813414611362576040517f08c379a000000000000000000000000000000000000000000000000000000000815260040161135990611a4c565b60405180910390fd5b6005600084815260200190815260200160002060030160009054906101000a900473ffffffffffffffffffffffffffffffffffffffff1673ffffffffffffffffffffffffffffffffffffffff166108fc349081150290604051600060405180830381858888f193505050501580156113de573d6000803e3d6000fd5b508373ffffffffffffffffffffffffffffffffffffffff166323b872dd3033846040518463ffffffff1660e01b815260040161141c9392919061198e565b600060405180830381600087803b15801561143657600080fd5b505af115801561144a573d6000803e3d6000fd5b5050505060016005600083815260200190815260200160002060060160006101000a81548160ff021916908315150217905550336005600085815260200190815260200160002060040160006101000a81548173ffffffffffffffffffffffffffffffffffffffff021916908373ffffffffffffffffffffffffffffffffffffffff1602179055506114dc600261155b565b600360009054906101000a900473ffffffffffffffffffffffffffffffffffffffff1673ffffffffffffffffffffffffffffffffffffffff166108fc6004549081150290604051600060405180830381858888f19350505050158015611546573d6000803e3d6000fd5b5050505050565b600081600001549050919050565b6001816000016000828254019250508190555050565b600081600001549050600081116115bd576040517f08c379a00000000000000000000000000000000000000000000000000000000081526004016115b490611a2c565b60405180910390fd5b6001810382600001819055505050565b6040518060e0016040528060008152602001600073ffffffffffffffffffffffffffffffffffffffff16815260200160008152602001600073ffffffffffffffffffffffffffffffffffffffff168152602001600073ffffffffffffffffffffffffffffffffffffffff168152602001600081526020016000151581525090565b60008135905061165d81611e84565b92915050565b60008135905061167281611e9b565b92915050565b6000806040838503121561168b57600080fd5b60006116998582860161164e565b92505060206116aa85828601611663565b9150509250929050565b6000806000606084860312156116c957600080fd5b60006116d78682870161164e565b93505060206116e886828701611663565b92505060406116f986828701611663565b9150509250925092565b60006020828403121561171557600080fd5b600061172384828501611663565b91505092915050565b600061173883836118e2565b60e08301905092915050565b61174d81611c0d565b82525050565b61175c81611bfb565b82525050565b61176b81611bfb565b82525050565b600061177c82611b37565b6117868185611b4f565b935061179183611b27565b8060005b838110156117c25781516117a9888261172c565b97506117b483611b42565b925050600181019050611795565b5085935050505092915050565b6117d881611c1f565b82525050565b6117e781611c1f565b82525050565b60006117fa601b83611b60565b915061180582611ccd565b602082019050919050565b600061181d604083611b60565b915061182882611cf6565b604082019050919050565b6000611840602a83611b60565b915061184b82611d45565b604082019050919050565b6000611863602483611b60565b915061186e82611d94565b604082019050919050565b6000611886603083611b60565b915061189182611de3565b604082019050919050565b60006118a9601f83611b60565b91506118b482611e32565b602082019050919050565b60006118cc601c83611b60565b91506118d782611e5b565b602082019050919050565b60e0820160008201516118f86000850182611970565b50602082015161190b6020850182611753565b50604082015161191e6040850182611970565b5060608201516119316060850182611744565b5060808201516119446080850182611744565b5060a082015161195760a0850182611970565b5060c082015161196a60c08501826117cf565b50505050565b61197981611c4b565b82525050565b61198881611c4b565b82525050565b60006060820190506119a36000830186611762565b6119b06020830185611762565b6119bd604083018461197f565b949350505050565b60006080820190506119da6000830187611762565b6119e76020830186611762565b6119f4604083018561197f565b611a0160608301846117de565b95945050505050565b60006020820190508181036000830152611a248184611771565b905092915050565b60006020820190508181036000830152611a45816117ed565b9050919050565b60006020820190508181036000830152611a6581611810565b9050919050565b60006020820190508181036000830152611a8581611833565b9050919050565b60006020820190508181036000830152611aa581611856565b9050919050565b60006020820190508181036000830152611ac581611879565b9050919050565b60006020820190508181036000830152611ae58161189c565b9050919050565b60006020820190508181036000830152611b05816118bf565b9050919050565b6000602082019050611b21600083018461197f565b92915050565b6000819050602082019050919050565b600081519050919050565b6000602082019050919050565b600082825260208201905092915050565b600082825260208201905092915050565b6000611b7c82611c4b565b9150611b8783611c4b565b9250827fffffffffffffffffffffffffffffffffffffffffffffffffffffffffffffffff03821115611bbc57611bbb611c9e565b5b828201905092915050565b6000611bd282611c4b565b9150611bdd83611c4b565b925082821015611bf057611bef611c9e565b5b828203905092915050565b6000611c0682611c2b565b9050919050565b6000611c1882611c2b565b9050919050565b60008115159050919050565b600073ffffffffffffffffffffffffffffffffffffffff82169050919050565b6000819050919050565b6000611c6082611c4b565b91507fffffffffffffffffffffffffffffffffffffffffffffffffffffffffffffffff821415611c9357611c92611c9e565b5b600182019050919050565b7f4e487b7100000000000000000000000000000000000000000000000000000000600052601160045260246000fd5b7f436f756e7465723a2064656372656d656e74206f766572666c6f770000000000600082015250565b7f506c65617365207375626d6974207468652061736b696e67207072696365206960008201527f6e206f7264657220746f20636f6d706c65746520746865207075726368617365602082015250565b7f4f6e6c79206974656d206f776e65722063616e20706572666f726d207468697360008201527f206f7065726174696f6e00000000000000000000000000000000000000000000602082015250565b7f5072696365206d75737420626520657175616c20746f206c697374696e67207060008201527f7269636500000000000000000000000000000000000000000000000000000000602082015250565b7f4f6e6c79206d61726b6574706c616365206f776e65722063616e20757064617460008201527f65206c697374696e672070726963652e00000000000000000000000000000000602082015250565b7f5265656e7472616e637947756172643a207265656e7472616e742063616c6c00600082015250565b7f5072696365206d757374206265206174206c6561737420312077656900000000600082015250565b611e8d81611bfb565b8114611e9857600080fd5b50565b611ea481611c4b565b8114611eaf57600080fd5b5056fea26469706673582212205b1e6d9b3a1e920910ff90f70850018256688cc0d772d29668b85cab1353501f64736f6c63430008040033",
  "linkReferences": {},
  "deployedLinkReferences": {}
}