{
  "_format": "hh-sol-artifact-1",
  "contractName": "Marketplace",
  "sourceName": "contracts/Marketplace.sol",
  "abi": [
    {
      "inputs": [],
      "stateMutability": "nonpayable",
      "type": "constructor"
    },
    {
      "anonymous": false,
      "inputs": [
        {
          "indexed": true,
          "internalType": "uint256",
          "name": "itemId",
          "type": "uint256"
        },
        {
          "indexed": true,
          "internalType": "address",
          "name": "nftContract",
          "type": "address"
        },
        {
          "indexed": true,
          "internalType": "uint256",
          "name": "tokenId",
          "type": "uint256"
        },
        {
          "indexed": false,
          "internalType": "address",
          "name": "seller",
          "type": "address"
        },
        {
          "indexed": false,
          "internalType": "address",
          "name": "owner",
          "type": "address"
        },
        {
          "indexed": false,
          "internalType": "uint256",
          "name": "price",
          "type": "uint256"
        },
        {
          "indexed": false,
          "internalType": "bool",
          "name": "sold",
          "type": "bool"
        }
      ],
      "name": "MarketItemCreated",
      "type": "event"
    },
    {
      "inputs": [
        {
          "internalType": "address",
          "name": "nftContract",
          "type": "address"
        },
        {
          "internalType": "uint256",
          "name": "tokenId",
          "type": "uint256"
        },
        {
          "internalType": "uint256",
          "name": "price",
          "type": "uint256"
        }
      ],
      "name": "createMarketItem",
      "outputs": [],
      "stateMutability": "payable",
      "type": "function"
    },
    {
      "inputs": [
        {
          "internalType": "address",
          "name": "nftContract",
          "type": "address"
        },
        {
          "internalType": "uint256",
          "name": "itemId",
          "type": "uint256"
        }
      ],
      "name": "createMarketSale",
      "outputs": [],
      "stateMutability": "payable",
      "type": "function"
    },
    {
      "inputs": [],
      "name": "fetchItemsListed",
      "outputs": [
        {
          "components": [
            {
              "internalType": "uint256",
              "name": "itemId",
              "type": "uint256"
            },
            {
              "internalType": "address",
              "name": "nftContract",
              "type": "address"
            },
            {
              "internalType": "uint256",
              "name": "tokenId",
              "type": "uint256"
            },
            {
              "internalType": "address payable",
              "name": "seller",
              "type": "address"
            },
            {
              "internalType": "address payable",
              "name": "owner",
              "type": "address"
            },
            {
              "internalType": "uint256",
              "name": "price",
              "type": "uint256"
            },
            {
              "internalType": "bool",
              "name": "sold",
              "type": "bool"
            }
          ],
          "internalType": "struct Marketplace.MarketItem[]",
          "name": "",
          "type": "tuple[]"
        }
      ],
      "stateMutability": "view",
      "type": "function"
    },
    {
      "inputs": [],
      "name": "fetchMarketItems",
      "outputs": [
        {
          "components": [
            {
              "internalType": "uint256",
              "name": "itemId",
              "type": "uint256"
            },
            {
              "internalType": "address",
              "name": "nftContract",
              "type": "address"
            },
            {
              "internalType": "uint256",
              "name": "tokenId",
              "type": "uint256"
            },
            {
              "internalType": "address payable",
              "name": "seller",
              "type": "address"
            },
            {
              "internalType": "address payable",
              "name": "owner",
              "type": "address"
            },
            {
              "internalType": "uint256",
              "name": "price",
              "type": "uint256"
            },
            {
              "internalType": "bool",
              "name": "sold",
              "type": "bool"
            }
          ],
          "internalType": "struct Marketplace.MarketItem[]",
          "name": "",
          "type": "tuple[]"
        }
      ],
      "stateMutability": "view",
      "type": "function"
    },
    {
      "inputs": [],
      "name": "fetchMyNFTs",
      "outputs": [
        {
          "components": [
            {
              "internalType": "uint256",
              "name": "itemId",
              "type": "uint256"
            },
            {
              "internalType": "address",
              "name": "nftContract",
              "type": "address"
            },
            {
              "internalType": "uint256",
              "name": "tokenId",
              "type": "uint256"
            },
            {
              "internalType": "address payable",
              "name": "seller",
              "type": "address"
            },
            {
              "internalType": "address payable",
              "name": "owner",
              "type": "address"
            },
            {
              "internalType": "uint256",
              "name": "price",
              "type": "uint256"
            },
            {
              "internalType": "bool",
              "name": "sold",
              "type": "bool"
            }
          ],
          "internalType": "struct Marketplace.MarketItem[]",
          "name": "",
          "type": "tuple[]"
        }
      ],
      "stateMutability": "view",
      "type": "function"
    },
    {
      "inputs": [],
      "name": "getListingPrice",
      "outputs": [
        {
          "internalType": "uint256",
          "name": "",
          "type": "uint256"
        }
      ],
      "stateMutability": "view",
      "type": "function"
    },
    {
      "inputs": [
        {
          "internalType": "address",
          "name": "nftContract",
          "type": "address"
        },
        {
          "internalType": "uint256",
          "name": "itemId",
          "type": "uint256"
        }
      ],
      "name": "resellToken",
      "outputs": [],
      "stateMutability": "payable",
      "type": "function"
    },
    {
      "inputs": [
        {
          "internalType": "uint256",
          "name": "_listingPrice",
          "type": "uint256"
        }
      ],
      "name": "updateListingPrice",
      "outputs": [],
      "stateMutability": "payable",
      "type": "function"
    }
  ],
  "bytecode": "0x60806040526602e9c920b7400060045534801561001b57600080fd5b50600160008190555033600360006101000a81548173ffffffffffffffffffffffffffffffffffffffff021916908373ffffffffffffffffffffffffffffffffffffffff160217905550611e92806100746000396000f3fe60806040526004361061007b5760003560e01c806358eb2df51161004e57806358eb2df51461012c5780636455187914610148578063ae677aa314610164578063c23b139e146101805761007b565b80630f08efe01461008057806312e85585146100ab578063202e3740146100d657806345f8fa8014610101575b600080fd5b34801561008c57600080fd5b5061009561019c565b6040516100a291906119b4565b60405180910390f35b3480156100b757600080fd5b506100c06104b1565b6040516100cd9190611ab6565b60405180910390f35b3480156100e257600080fd5b506100eb6104bb565b6040516100f891906119b4565b60405180910390f35b34801561010d57600080fd5b5061011661086b565b60405161012391906119b4565b60405180910390f35b6101466004803603810190610141919061165e565b610c05565b005b610162600480360381019061015d9190611622565b610f69565b005b61017e600480360381019061017991906116ad565b6111fa565b005b61019a60048036038101906101959190611622565b611294565b005b606060006101aa60016114f7565b905060006101b860026114f7565b6101c260016114f7565b6101cc9190611b71565b90506000808267ffffffffffffffff811115610211577f4e487b7100000000000000000000000000000000000000000000000000000000600052604160045260246000fd5b60405190808252806020026020018201604052801561024a57816020015b610237611577565b81526020019060019003908161022f5790505b50905060005b848110156104a6573073ffffffffffffffffffffffffffffffffffffffff16600560006001846102809190611b1b565b815260200190815260200160002060040160009054906101000a900473ffffffffffffffffffffffffffffffffffffffff1673ffffffffffffffffffffffffffffffffffffffff1614156104935760006001826102dd9190611b1b565b90506000600560008381526020019081526020016000209050806040518060e0016040529081600082015481526020016001820160009054906101000a900473ffffffffffffffffffffffffffffffffffffffff1673ffffffffffffffffffffffffffffffffffffffff1673ffffffffffffffffffffffffffffffffffffffff168152602001600282015481526020016003820160009054906101000a900473ffffffffffffffffffffffffffffffffffffffff1673ffffffffffffffffffffffffffffffffffffffff1673ffffffffffffffffffffffffffffffffffffffff1681526020016004820160009054906101000a900473ffffffffffffffffffffffffffffffffffffffff1673ffffffffffffffffffffffffffffffffffffffff1673ffffffffffffffffffffffffffffffffffffffff168152602001600582015481526020016006820160009054906101000a900460ff161515151581525050848681518110610476577f4e487b7100000000000000000000000000000000000000000000000000000000600052603260045260246000fd5b602002602001018190525060018561048e9190611b1b565b945050505b808061049e90611bff565b915050610250565b508094505050505090565b6000600454905090565b606060006104c960016114f7565b905060008060005b83811015610572573373ffffffffffffffffffffffffffffffffffffffff16600560006001846105019190611b1b565b815260200190815260200160002060040160009054906101000a900473ffffffffffffffffffffffffffffffffffffffff1673ffffffffffffffffffffffffffffffffffffffff16141561055f5760018361055c9190611b1b565b92505b808061056a90611bff565b9150506104d1565b5060008267ffffffffffffffff8111156105b5577f4e487b7100000000000000000000000000000000000000000000000000000000600052604160045260246000fd5b6040519080825280602002602001820160405280156105ee57816020015b6105db611577565b8152602001906001900390816105d35790505b50905060005b84811015610860573373ffffffffffffffffffffffffffffffffffffffff16600560006001846106249190611b1b565b815260200190815260200160002060040160009054906101000a900473ffffffffffffffffffffffffffffffffffffffff1673ffffffffffffffffffffffffffffffffffffffff16141561084d576000600560006001846106859190611b1b565b81526020019081526020016000206000015490506000600560008381526020019081526020016000209050806040518060e0016040529081600082015481526020016001820160009054906101000a900473ffffffffffffffffffffffffffffffffffffffff1673ffffffffffffffffffffffffffffffffffffffff1673ffffffffffffffffffffffffffffffffffffffff168152602001600282015481526020016003820160009054906101000a900473ffffffffffffffffffffffffffffffffffffffff1673ffffffffffffffffffffffffffffffffffffffff1673ffffffffffffffffffffffffffffffffffffffff1681526020016004820160009054906101000a900473ffffffffffffffffffffffffffffffffffffffff1673ffffffffffffffffffffffffffffffffffffffff1673ffffffffffffffffffffffffffffffffffffffff168152602001600582015481526020016006820160009054906101000a900460ff161515151581525050848681518110610830577f4e487b7100000000000000000000000000000000000000000000000000000000600052603260045260246000fd5b60200260200101819052506001856108489190611b1b565b945050505b808061085890611bff565b9150506105f4565b508094505050505090565b6060600061087960016114f7565b905060008060005b83811015610922573373ffffffffffffffffffffffffffffffffffffffff16600560006001846108b19190611b1b565b815260200190815260200160002060030160009054906101000a900473ffffffffffffffffffffffffffffffffffffffff1673ffffffffffffffffffffffffffffffffffffffff16141561090f5760018361090c9190611b1b565b92505b808061091a90611bff565b915050610881565b5060008267ffffffffffffffff811115610965577f4e487b7100000000000000000000000000000000000000000000000000000000600052604160045260246000fd5b60405190808252806020026020018201604052801561099e57816020015b61098b611577565b8152602001906001900390816109835790505b50905060005b84811015610bfa573373ffffffffffffffffffffffffffffffffffffffff16600560006001846109d49190611b1b565b815260200190815260200160002060030160009054906101000a900473ffffffffffffffffffffffffffffffffffffffff1673ffffffffffffffffffffffffffffffffffffffff161415610be7576000600182610a319190611b1b565b90506000600560008381526020019081526020016000209050806040518060e0016040529081600082015481526020016001820160009054906101000a900473ffffffffffffffffffffffffffffffffffffffff1673ffffffffffffffffffffffffffffffffffffffff1673ffffffffffffffffffffffffffffffffffffffff168152602001600282015481526020016003820160009054906101000a900473ffffffffffffffffffffffffffffffffffffffff1673ffffffffffffffffffffffffffffffffffffffff1673ffffffffffffffffffffffffffffffffffffffff1681526020016004820160009054906101000a900473ffffffffffffffffffffffffffffffffffffffff1673ffffffffffffffffffffffffffffffffffffffff1673ffffffffffffffffffffffffffffffffffffffff168152602001600582015481526020016006820160009054906101000a900460ff161515151581525050848681518110610bca577f4e487b7100000000000000000000000000000000000000000000000000000000600052603260045260246000fd5b6020026020010181905250600185610be29190611b1b565b945050505b8080610bf290611bff565b9150506109a4565b508094505050505090565b60026000541415610c4b576040517f08c379a0000000000000000000000000000000000000000000000000000000008152600401610c4290611a76565b60405180910390fd5b600260008190555060008111610c96576040517f08c379a0000000000000000000000000000000000000000000000000000000008152600401610c8d90611a96565b60405180910390fd5b6004543414610cda576040517f08c379a0000000000000000000000000000000000000000000000000000000008152600401610cd190611a36565b60405180910390fd5b610ce46001611505565b6000610cf060016114f7565b90506040518060e001604052808281526020018573ffffffffffffffffffffffffffffffffffffffff1681526020018481526020013373ffffffffffffffffffffffffffffffffffffffff168152602001600073ffffffffffffffffffffffffffffffffffffffff16815260200183815260200160001515815250600560008381526020019081526020016000206000820151816000015560208201518160010160006101000a81548173ffffffffffffffffffffffffffffffffffffffff021916908373ffffffffffffffffffffffffffffffffffffffff1602179055506040820151816002015560608201518160030160006101000a81548173ffffffffffffffffffffffffffffffffffffffff021916908373ffffffffffffffffffffffffffffffffffffffff16021790555060808201518160040160006101000a81548173ffffffffffffffffffffffffffffffffffffffff021916908373ffffffffffffffffffffffffffffffffffffffff16021790555060a0820151816005015560c08201518160060160006101000a81548160ff0219169083151502179055509050508373ffffffffffffffffffffffffffffffffffffffff166323b872dd3330866040518463ffffffff1660e01b8152600401610ed193929190611938565b600060405180830381600087803b158015610eeb57600080fd5b505af1158015610eff573d6000803e3d6000fd5b50505050828473ffffffffffffffffffffffffffffffffffffffff16827f045dfa01dcba2b36aba1d3dc4a874f4b0c5d2fbeb8d2c4b34a7d88c8d8f929d1336000876000604051610f53949392919061196f565b60405180910390a4506001600081905550505050565b6000600560008381526020019081526020016000206005015490506000600560008481526020019081526020016000206002015490503373ffffffffffffffffffffffffffffffffffffffff166005600083815260200190815260200160002060040160009054906101000a900473ffffffffffffffffffffffffffffffffffffffff1673ffffffffffffffffffffffffffffffffffffffff1614611043576040517f08c379a000000000000000000000000000000000000000000000000000000000815260040161103a90611a16565b60405180910390fd5b6004543414611087576040517f08c379a000000000000000000000000000000000000000000000000000000000815260040161107e90611a36565b60405180910390fd5b60006005600083815260200190815260200160002060060160006101000a81548160ff021916908315150217905550816005600083815260200190815260200160002060050181905550336005600083815260200190815260200160002060030160006101000a81548173ffffffffffffffffffffffffffffffffffffffff021916908373ffffffffffffffffffffffffffffffffffffffff160217905550306005600083815260200190815260200160002060040160006101000a81548173ffffffffffffffffffffffffffffffffffffffff021916908373ffffffffffffffffffffffffffffffffffffffff160217905550611185600261151b565b8373ffffffffffffffffffffffffffffffffffffffff166323b872dd3330846040518463ffffffff1660e01b81526004016111c293929190611938565b600060405180830381600087803b1580156111dc57600080fd5b505af11580156111f0573d6000803e3d6000fd5b5050505050505050565b3373ffffffffffffffffffffffffffffffffffffffff16600360009054906101000a900473ffffffffffffffffffffffffffffffffffffffff1673ffffffffffffffffffffffffffffffffffffffff161461128a576040517f08c379a000000000000000000000000000000000000000000000000000000000815260040161128190611a56565b60405180910390fd5b8060048190555050565b60006005600083815260200190815260200160002060050154905060006005600084815260200190815260200160002060020154905081341461130c576040517f08c379a0000000000000000000000000000000000000000000000000000000008152600401611303906119f6565b60405180910390fd5b6005600084815260200190815260200160002060030160009054906101000a900473ffffffffffffffffffffffffffffffffffffffff1673ffffffffffffffffffffffffffffffffffffffff166108fc349081150290604051600060405180830381858888f19350505050158015611388573d6000803e3d6000fd5b508373ffffffffffffffffffffffffffffffffffffffff166323b872dd3033846040518463ffffffff1660e01b81526004016113c693929190611938565b600060405180830381600087803b1580156113e057600080fd5b505af11580156113f4573d6000803e3d6000fd5b5050505060016005600083815260200190815260200160002060060160006101000a81548160ff021916908315150217905550336005600085815260200190815260200160002060040160006101000a81548173ffffffffffffffffffffffffffffffffffffffff021916908373ffffffffffffffffffffffffffffffffffffffff1602179055506114866002611505565b600360009054906101000a900473ffffffffffffffffffffffffffffffffffffffff1673ffffffffffffffffffffffffffffffffffffffff166108fc6004549081150290604051600060405180830381858888f193505050501580156114f0573d6000803e3d6000fd5b5050505050565b600081600001549050919050565b6001816000016000828254019250508190555050565b60008160000154905060008111611567576040517f08c379a000000000000000000000000000000000000000000000000000000000815260040161155e906119d6565b60405180910390fd5b6001810382600001819055505050565b6040518060e0016040528060008152602001600073ffffffffffffffffffffffffffffffffffffffff16815260200160008152602001600073ffffffffffffffffffffffffffffffffffffffff168152602001600073ffffffffffffffffffffffffffffffffffffffff168152602001600081526020016000151581525090565b60008135905061160781611e2e565b92915050565b60008135905061161c81611e45565b92915050565b6000806040838503121561163557600080fd5b6000611643858286016115f8565b92505060206116548582860161160d565b9150509250929050565b60008060006060848603121561167357600080fd5b6000611681868287016115f8565b93505060206116928682870161160d565b92505060406116a38682870161160d565b9150509250925092565b6000602082840312156116bf57600080fd5b60006116cd8482850161160d565b91505092915050565b60006116e2838361188c565b60e08301905092915050565b6116f781611bb7565b82525050565b61170681611ba5565b82525050565b61171581611ba5565b82525050565b600061172682611ae1565b6117308185611af9565b935061173b83611ad1565b8060005b8381101561176c57815161175388826116d6565b975061175e83611aec565b92505060018101905061173f565b5085935050505092915050565b61178281611bc9565b82525050565b61179181611bc9565b82525050565b60006117a4601b83611b0a565b91506117af82611c77565b602082019050919050565b60006117c7604083611b0a565b91506117d282611ca0565b604082019050919050565b60006117ea602a83611b0a565b91506117f582611cef565b604082019050919050565b600061180d602483611b0a565b915061181882611d3e565b604082019050919050565b6000611830603083611b0a565b915061183b82611d8d565b604082019050919050565b6000611853601f83611b0a565b915061185e82611ddc565b602082019050919050565b6000611876601c83611b0a565b915061188182611e05565b602082019050919050565b60e0820160008201516118a2600085018261191a565b5060208201516118b560208501826116fd565b5060408201516118c8604085018261191a565b5060608201516118db60608501826116ee565b5060808201516118ee60808501826116ee565b5060a082015161190160a085018261191a565b5060c082015161191460c0850182611779565b50505050565b61192381611bf5565b82525050565b61193281611bf5565b82525050565b600060608201905061194d600083018661170c565b61195a602083018561170c565b6119676040830184611929565b949350505050565b6000608082019050611984600083018761170c565b611991602083018661170c565b61199e6040830185611929565b6119ab6060830184611788565b95945050505050565b600060208201905081810360008301526119ce818461171b565b905092915050565b600060208201905081810360008301526119ef81611797565b9050919050565b60006020820190508181036000830152611a0f816117ba565b9050919050565b60006020820190508181036000830152611a2f816117dd565b9050919050565b60006020820190508181036000830152611a4f81611800565b9050919050565b60006020820190508181036000830152611a6f81611823565b9050919050565b60006020820190508181036000830152611a8f81611846565b9050919050565b60006020820190508181036000830152611aaf81611869565b9050919050565b6000602082019050611acb6000830184611929565b92915050565b6000819050602082019050919050565b600081519050919050565b6000602082019050919050565b600082825260208201905092915050565b600082825260208201905092915050565b6000611b2682611bf5565b9150611b3183611bf5565b9250827fffffffffffffffffffffffffffffffffffffffffffffffffffffffffffffffff03821115611b6657611b65611c48565b5b828201905092915050565b6000611b7c82611bf5565b9150611b8783611bf5565b925082821015611b9a57611b99611c48565b5b828203905092915050565b6000611bb082611bd5565b9050919050565b6000611bc282611bd5565b9050919050565b60008115159050919050565b600073ffffffffffffffffffffffffffffffffffffffff82169050919050565b6000819050919050565b6000611c0a82611bf5565b91507fffffffffffffffffffffffffffffffffffffffffffffffffffffffffffffffff821415611c3d57611c3c611c48565b5b600182019050919050565b7f4e487b7100000000000000000000000000000000000000000000000000000000600052601160045260246000fd5b7f436f756e7465723a2064656372656d656e74206f766572666c6f770000000000600082015250565b7f506c65617365207375626d6974207468652061736b696e67207072696365206960008201527f6e206f7264657220746f20636f6d706c65746520746865207075726368617365602082015250565b7f4f6e6c79206974656d206f776e65722063616e20706572666f726d207468697360008201527f206f7065726174696f6e00000000000000000000000000000000000000000000602082015250565b7f5072696365206d75737420626520657175616c20746f206c697374696e67207060008201527f7269636500000000000000000000000000000000000000000000000000000000602082015250565b7f4f6e6c79206d61726b6574706c616365206f776e65722063616e20757064617460008201527f65206c697374696e672070726963652e00000000000000000000000000000000602082015250565b7f5265656e7472616e637947756172643a207265656e7472616e742063616c6c00600082015250565b7f5072696365206d757374206265206174206c6561737420312077656900000000600082015250565b611e3781611ba5565b8114611e4257600080fd5b50565b611e4e81611bf5565b8114611e5957600080fd5b5056fea26469706673582212203270e42315b1ce9292ab17bb6e13e3d6894ec14368929b9bf924efdf50f7dcaf64736f6c63430008040033",
  "linkReferences": {},
  "deployedLinkReferences": {}
}